:020000040800F2
:100000000020002021480008BD2F0008BF2F000855
:1000100000000000000000000000000000000000E0
:10002000000000000000000000000000C12F0008D8
:100030000000000000000000C32F0008C52F0008CA
:1000400071480008714800087148000871480008AC
:10005000714800087148000871480008714800089C
:10006000714800087148000871480008714800088C
:10007000714800087148000871480008714800087C
:10008000714800087148000800000000714800082D
:10009000714800087148000871480008714800085C
:1000A000714800087148000871480008714800084C
:1000B00071480008000000007148000800000000BE
:1000C0000448054B10B5834203D0044B002B00D0ED
:1000D000984710BD70000020700000200000000054
:1000E00006480749091A8B10C90FC91810B54910DD
:1000F00003D0044B002B00D0984710BD70000020A7
:10010000700000200000000010B5074C2378002B81
:1001100009D1FFF7D5FF054B002B02D0044800E0C2
:1001200000BF0123237010BD7000002000000000FC
:1001300074480008054B10B5002B03D0044905484E
:1001400000E000BFFFF7CCFF10BDC046000000007C
:10015000740000207448000870B50C4D0C4E761BDE
:10016000B61005D0002408CD01349847A642FAD134
:1001700004F080FB074D084E761BB61005D0002416
:1001800008CD01349847A642FAD170BD0C4C000846
:100190000C4C00080C4C0008104C0008F0B5050091
:1001A000830749D0541E002A45D003000326CAB253
:1001B00002E00135013C3ED301332A703342F8D1CD
:1001C000032C30D9FF220A40150215432A04154397
:1001D0000F2C34D92700103F3F093E01B4461E00C2
:1001E0001A0010366644156055609560D56010326F
:1001F000B242F8D101373F01DB190F270C2227400B
:1002000022403C00002A0ED03E1FB608B400A4468F
:100210001A001C1D644420C2A242FCD103240136F2
:10022000B6009B193C40002C05D0C9B21C191970AE
:1002300001339C42FBD1F0BD03001400C0E727004E
:10024000E2E7C0460EB410B5040083B0002802D027
:100250008369002B0BD006AB2000059AA16801939F
:1002600000F090FD03B010BC08BC03B0184700F0CC
:100270009DFBF0E70FB410B50B4B82B01C68002C4F
:1002800002D0A369002B0BD005AB2000049AA16813
:10029000019300F077FD02B010BC08BC04B0184711
:1002A000200000F083FBEFE70000002070B506009F
:1002B0000D00002837D08369002B32D084682F4B83
:1002C0009C423AD02E4B9C4244D02E4B9C4252D062
:1002D000A3891B0735D52369002B32D02978002943
:1002E00011D0A3680135013BA360002B04DAA26999
:1002F000934231DB0A292FD023685A1C22601970DF
:1003000029780029EDD1A368013BA360002B2CDAEA
:1003100022000A21300000F041F8431C17D00A20C7
:1003200070BD00F043FBB369B468002BC7D1300047
:1003300000F03CFB114B9C42C4D17468A3891B079D
:10034000C9D42100300000F09FF80028C6D0012059
:100350004042E5E7B468BBE72200300000F01EF839
:10036000431CBBD101204042DAE723685A1C2260BB
:100370000A221A70D3E7F468AAE7C046D0480008FA
:10038000B04800089048000810B5034B01001868F9
:10039000FFF78CFF10BDC04600000020F8B5050037
:1003A0000E001400002802D08369002B29D02D4BA9
:1003B0009C422BD02C4B9C4246D02C4B9C424ED086
:1003C000A369A360A3891B0726D52369002B23D02B
:1003D000FF212268F7B20E406169D31A99422ADDE3
:1003E0000133A1680139A160511C21601770626955
:1003F0009A422BD0A389DB0701D50A2E26D03000E4
:10040000F8BD00F0D3FA174B9C42D3D16C68A369B6
:10041000A360A3891B07D8D42100280000F034F87A
:10042000002819D1FF2123692268F7B20E406169C3
:10043000D31A9942D4DC2100280000F039F90028B1
:100440000AD101232268CCE7AC68B9E72100280073
:1004500000F02EF90028D2D001267642CFE7EC68D2
:10046000AEE7C046D0480008B048000890480008F1
:10047000030010B50A00034908681900FFF78EFF52
:1004800010BDC046000000203E4B70B51D68060040
:100490000C00002D02D0AB69002B1BD03A4B9C42C4
:1004A0001ED03A4B9C424CD0394B9C4260D00C231E
:1004B000E25EA389190719D52169002921D0D8073F
:1004C00030D50020A06060694042A0610020002972
:1004D00030D070BD280000F069FA2B4B9C42E0D16F
:1004E0006C680C23E25EA3891907E5D4D90641D5CF
:1004F0005B0728D4216908231A43A28193B20029FB
:10050000DDD1A02080258000AD001840A842D6D0C3
:100510002100300000F0B6FA0C23E25EA3892169C5
:10052000D807CED400209D0700D46069A0600020C9
:100530000029CED11B06CCD540231A43A281013815
:10054000C7E7AC68B3E7616B00290AD023004433E6
:10055000994204D0300000F01BFB0C23E25E002324
:10056000636324239A430023216963602160C2E707
:10057000EC689CE709233360402301201A43A281E1
:100580004042A6E700000020D0480008B04800081C
:1005900090480008F0B5C64600B58B8980460C002F
:1005A0001A0743D44A68002A61DDE56A002D39D074
:1005B00042464146166800220A60DA045BD40123F1
:1005C00000224046216AA847431C5FD0A389E56A00
:1005D0005B0706D56368C01A636B002B01D0236CE0
:1005E000C01A00230200216A4046A847431C44D198
:1005F00043461B68002B40D01D2B01D0162B4DD13C
:1006000000236360236923604346616B1E600029F9
:1006100008D023004433994202D0404600F0B8FA93
:1006200000236363002080BCB846F0BD0E69002E35
:10063000F8D00A680E60951B00229B0700D14A691A
:10064000A260002D04DCEDE736182D1A002DE9DD3F
:100650002B0032004046216AA76AB8470028F3DC25
:1006600040220120A38940421343A381DBE70A6CA7
:10067000002A9ADCD6E7606DAAE70023636023694D
:100680002360A389DB04BFD56065BDE743461B68D3
:10069000002B9BD01D2B06D0162B04D04022A38903
:1006A0001343A381BFE7434600201E60BBE7C0465B
:1006B0000B6970B505000C00002B16D0002802D085
:1006C0008369002B15D00E4B9C4210D00D4B9C42E1
:1006D00012D00D4B9C4211D00C22A35E002B04D0F3
:1006E00021002800FFF756FF00E0002070BD6C6875
:1006F000F2E700F05BF9E6E7AC68EDE7EC68EBE702
:10070000D0480008B04800089048000870B5041EA2
:1007100029D00369002B1DD0184B1D68002D02D075
:10072000AB69002B18D0164B9C420ED0154B9C4247
:100730001FD0154B9C421ED00C22A35E002B09D06B
:1007400021002800FFF726FF70BD6C680C22A35E15
:10075000002BF5D10020F7E7280000F027F9084B1F
:100760009C42E3D1F1E7094B0949186800F066F9AA
:10077000EAE7AC68E0E7EC68DEE7C046000000208E
:10078000D0480008B0480008904800088C4800088D
:10079000B10600080020704710B5024900F04EF97C
:1007A00010BDC046B10600080020704770B568252E
:1007B0004A1E55430E002900743100F049FA041E08
:1007C00009D000232A00036046600C300021A0609D
:1007D0006832FFF7E3FC200070BDC046F0B5C646A6
:1007E000274B07001E6800B5B369002B2AD00423ED
:1007F000984648367368B468013B03D51DE06834F9
:10080000013B1AD30C22A55E002DF8D120001D4B10
:1008100008220021656625606560A560E3602561AA
:100820006561A5615C30FFF7B9FC6563A563A564EC
:10083000E564200080BCB846F0BD3568002D05D0C9
:100840002E00D7E7300000F01FF8D0E7D62138009F
:10085000490000F0FDF9041E0DD04346D02205608A
:10086000250043600C300021A0605200FFF796FC89
:1008700034602E00BEE70C2330603B60D9E7C046F1
:100880008C4800080100FFFFF0B5D6464F464646AB
:10089000384BC0B5836200238364C3640365364B61
:1008A00082B01B6805000193984260D02800FFF7D2
:1008B00095FF68602800FFF791FFA8602800FFF708
:1008C0008DFF6E680024E860042330007466346095
:1008D0007460B460F36034617461B4610822002113
:1008E0005C30FFF75BFC254B254F9A467362254B26
:1008F00037639946B362244B3662F362AE6898461A
:100900003000224B746634607460B460F36034610C
:100910007461B461082200215C30FFF73FFC53464C
:1009200073624B46B36243463763F3623662EE68E6
:10093000174B3000F3600822002174663460746045
:10094000B46034617461B4615C30FFF727FC5346D6
:1009500073624B46B3624346F362012336623763E8
:10096000AB6102B0E0BCBA46B146A846F0BD012377
:1009700083619BE7990700088C4800084114000830
:10098000D91400086D140008AD1400080900010016
:100990001200020010B5034B0349186800F04EF82E
:1009A00010BDC0468C480008B1060008836910B528
:1009B000002B01D1FFF768FF10BDC0467047C0464D
:1009C0007047C0467047C0467047C04610B5034BDD
:1009D0000349186800F012F810BDC046000000205E
:1009E0009507000810B5034B0349186800F006F896
:1009F00010BDC04600000020A9070008F0B5C6469B
:100A0000483088460700002600B57B68BC685D1E3C
:100A10000CD4A389012B06D90E22A35E013302D088
:100A20002000C04706436834013DF2D23F68002FE2
:100A3000EBD1300080BCB846F0BDC046F8B54746A3
:100A4000CE4680B5070080468946002648377B6839
:100A5000BC685D1E0DD4A389012B07D90E22A35EAD
:100A6000013303D021004046C84706436834013DA6
:100A7000F1D23F68002FEAD13000C0BCB946B04681
:100A8000F8BDC046F0B58B8906000C0097B09A07F8
:100A900007D523004733236023610123636117B027
:100AA000F0BD0E22895E00292FDB6A4600F040FD72
:100AB000002829DBF023019D1B021D401D4B9C4695
:100AC00065446B425D418027FF003900300000F033
:100AD000BFF8002823D08021174AB262A289206083
:100AE0000A43A28120616761002DD8D030000E2317
:100AF000E15E00F0ABFE0028D1D00322A38993432E
:100B000001221343A381CAE7A389002540271B06BE
:100B1000D9D53900300000F09BF80028DBD10C2239
:100B2000A35E9A05BBD40322934302221343A381FD
:100B3000AFE7C04600E0FFFF9907000870B50C0062
:100B40001D000E23C95E160096B0002914DB6A460C
:100B500000F0EEFC00280FDBF022019B1202134094
:100B60000A4A944663445A4253412B608023DB0077
:100B70003360002016B070BD0C22A35E00222A60F4
:100B80001B06F3D540233360F3E7C04600E0FFFFC8
:100B900070B50500002915D00C1F2368002B23DB3E
:100BA000280000F05BFF294A1368002B05D0A34200
:100BB0000BD92168601883422DD06360280014602F
:100BC00000F04EFF70BDA34210D81A005B68002BE6
:100BD000F9D1106811188C4219D030D36360546079
:100BE000280000F03DFFEDE7E418D9E71168501840
:100BF000A04217D023D8216860188342EED118682C
:100C00005B6884466144216063605460E8E7236860
:100C100018181060E4E718685B6884466144216036
:100C20006360CBE720680918501811608342D7D160
:100C300018685B688446614411605360D0E70C23F8
:100C400028002B6000F00CFFBCE7C0468C000020A1
:100C5000F8B50323CD1C9D43083506000C2D27D283
:100C60000C25A94226D8300000F0F8FE284F3A683B
:100C7000002A27D0140004E063682200002B21D052
:100C80001C0023685B1BF7D40B2B17D863689442B6
:100C900035D05360300000F0E3FE200007220B3017
:100CA000231D9043C21A984207D01B1AA35004E098
:100CB000002DD6DA0C2300203360F8BD2360E41841
:100CC0002560E7E77B68002B1BD02900300000F08F
:100CD000A5FB431C0CD00323C41C9C43A04205D09D
:100CE000211A300000F09AFB431C01D02560D1E7A7
:100CF0000C233000336000F0B3FE0020DDE73B60E2
:100D0000C8E70021300000F089FB7860DDE7C046CD
:100D10008C000020936810B5013B9360002B04DA2F
:100D20009469A34207DB0A2905D01368581C106098
:100D30000800197010BDFFF731FBFBE7F8B505009F
:100D40000E00002B0DD01400D71802E00134BC4275
:100D500007D0320028002178FFF7DCFF431CF5D1D3
:100D6000F8BD0020FCE7C046936810B51400002BC6
:100D700002D10020536010BD00F0EEFB0023A36001
:100D80006360F8E7F0B5DE4657464E464546E0B5A7
:100D900083468A4691461C009FB0002803D0836991
:100DA000002B00D1ABE09E4B9A4500D1ADE09D4BAE
:100DB0009A4500D1BBE09C4B9A4500D12BE15346AC
:100DC0009B891B0700D4A8E053461B69002B00D168
:100DD000A3E0002306AD6B6120336B761033AB7656
:100DE0002F3B98464B461978904E059400297AD0AF
:100DF0004C460B0004E063780134002B00D19AE0EC
:100E0000252BF8D14B46E31A02934C4500D097E0CE
:100E10002378002B67D00122002352426A604432BB
:100E200001342B60EB60AB60AB54AB6506E043462E
:100E3000801B83402A68013413432B600522300055
:100E4000217800F029FD0028F1D12B68DA0602D5BF
:100E500043222021A9541A0702D543222B21A95449
:100E600021782A2900D07DE0059A111D126805918C
:100E7000002A00DAABE0EA606178671C2E2900D115
:100E800084E06B4C0322200000F006FD002806D011
:100E90004023001B83402A68013713432B603978B5
:100EA0007B1C062263489946297600F0F5FC002851
:100EB00000D192E0604B002B00D178E005AB0093AD
:100EC0005246290058465D4B00E000BF0390039B4B
:100ED000013308D0039A6B69944663446B614B46B7
:100EE0001978002984D153469B895B061CD4686914
:100EF0001FB0F0BCBB46B246A946A046F0BDFFF706
:100F000055FD474B9A4500D051E75B465B689A46D2
:100F100053469B891B0700D556E751465846FFF7B5
:100F2000B3FA002800D154E701204042E0E75B46D5
:100F30009B689A4643E74B46E31A02934C45D2D04E
:100F40005B460027A3461C0005E0029B0137BB421D
:100F500034D94B46D95D52462000FFF7DBFE431CD7
:100F6000F3D1C0E70800303809280BD8EB689A00A5
:100F7000D31861785B001B18080030380134092849
:100F8000F5D9EB6027002E2900D07AE779782A2955
:100F90002DD1059BB81C1A1D1B6805926B60002B98
:100FA00002DA01235B426B60B978070069E7072228
:100FB000059B07339343083305938BE723006A6946
:100FC0005C4694469B46029B63446B6120E7524219
:100FD000EA60022213432B604EE705AB00935246B2
:100FE00029005846154B00F0D5F803906FE708002C
:100FF0000023303801376B60092800D941E79A0097
:10100000D31879785B001B1808003038013709289D
:10101000F5D96B6035E75B46DB689A46CFE6C0469C
:10102000D0480008B048000890480008D04B00089D
:10103000D84B0008DC4B0008000000003D0D000804
:1010400010B504001300034A10680A002100FFF7DE
:1010500099FE10BD00000020F8B557464E46DE460A
:101060004546E0B51F000A9B924699460A698B687F
:1010700006000C009A4200DA1A0053461A60432315
:10108000E35C002B02D0514601320A6021688A06D7
:101090005ED55346524606201B6802331360216812
:1010A0000A00084209D1E268D31A192293460022A5
:1010B000A34490460A00002B42DC4323E35C591E04
:1010C0008B4192060AD53020E11843310870452142
:1010D0005A1C615CA218433202331170220039009D
:1010E00030004332C847431C19D0062322681340FE
:1010F000042B33D0A368226993423DDD002188464A
:101100009B1A984400251A3402E00135454533DA2C
:101110000123220039003000C847431CF5D10120CB
:101120004042F0BCBB46B246A946A046F8BD0123EA
:101130009C465346E2681B68E044D51A454520DDCD
:1011400001235A4639003000C847431CEFD1E6E777
:1011500006220A4212D05A1E9341BFE7534619682D
:10116000E3682269591ACB43DB170B409846A36802
:101170009342C5DC0029C5DC0020D2E753461B683A
:1011800091E743232268E35C591E8B4192069AD46F
:10119000A4E7C046F0B54E46994643239C465746C1
:1011A0004546DE468C446346E0B587B003930C00A9
:1011B000097E90460700109A002914D00B00583B76
:1011C000DBB2202B4BD892489B00C3589F46236824
:1011D000190602D45B0600D501E11368191D1160E0
:1011E0001B6862691A600023039D23614B4621003E
:1011F00000933800434605AAFFF72EFF431C1FD07B
:1012000023692A0041463800C847431C18D0236888
:101210009B071ED5E36805981A1A002A1BDD2600D5
:101220000025193605E0E368059801351A1AAA4227
:1012300011DD0123320041463800C847431CF2D17A
:101240000120404207B0F0BCBB46B246A946A046CA
:10125000F0BDE36805989842F4DA1800F2E74223FB
:101260002500E154413B4235236143230022E254EF
:10127000BCE72368190602D4590600D5BBE0116803
:10128000081D10600A681600002A75DB614B9B463A
:101290000A239A464DE02368180602D45B0600D55F
:1012A000A4E01368181D10601E685A4B9B466F29F6
:1012B00000D1A7E00A239A4638E013682500191DDB
:1012C00011601A684223E254413B42352361CCE766
:1012D0001368191D11601D6800212800626800F064
:1012E000DBFA002800D190E0401B60602061BCE781
:1012F000202321680B432360452178206054464910
:101300008B46190631D459062FD51168081D0E8851
:101310001060DA0702D520221343236010239A4677
:10132000002E03D1226810339A4322604323002207
:10133000E2546368A360002B48DB042221689143D8
:101340002160002E27D1002B42D1039D5346082B4C
:1013500031D0039B5B1B236148E745235821E154AF
:1013600023682C498B461906CDD51168081D1060DD
:101370000E68CEE72368BFE743222D21A15462689F
:101380007642A260002A02DB042293432360214BB1
:101390009B460A239A46039D3000514600F064FCA8
:1013A0005B465B5C013D2B70330006005345F3D276
:1013B0005346082BCDD12368DB07CAD56368226961
:1013C0009342C6DC3023013D2B70C2E7002EE2D1F0
:1013D0005B4625001A7842234235E254B6E713688B
:1013E0006169181D10601B681980FCE61368181DE0
:1013F0001E88106059E71168081D106000228E5E7B
:10140000320041E708239A4690E7606820612CE7A4
:10141000F0480008E44B0008F84B0008002370B5C2
:10142000064D040008002B6000F08AFB431C00D02E
:1014300070BD2B68002BFBD02360F9E794000020DF
:1014400070B50C000E25495F00F034FB002803DB6B
:10145000636D1B18636570BDA389024A1340A381A5
:10146000F9E7C046FFEFFFFF00207047F8B50C001A
:101470001F000C23C95E05001600CB050AD40A4BD9
:10148000320019402800A1810E23E15E3B0000F0EC
:1014900029F8F8BD0E23E15E0022022300F0E8F9EE
:1014A0000C23E15EEBE7C046FFEFFFFF70B50C00D9
:1014B0000E25495F00F0DCF9431C06D08023A28989
:1014C0005B011343A381606570BDA389014A13408A
:1014D000A381F9E7FFEFFFFF10B50E23C95E00F00F
:1014E00015F810BD70B50400080011001A000023A3
:1014F000054D2B6001F038FA431C00D070BD2B68FD
:10150000002BFBD02360F9E794000020002370B586
:10151000064D040008002B6000F0EAFA431C00D0DE
:1015200070BD2B68002BFBD02360F9E794000020EE
:10153000002370B5074D0400080011002B6000F077
:10154000DFFA431C00D070BD2B68002BFBD023605A
:10155000F9E7C04694000020F0B5DE464546574600
:101560004E46E0B5936883460C00904683B0002B4E
:1015700023D08B891A0728D50A69002A25D042462C
:1015800016689A072DD50027AC4B00259946BA4618
:10159000002D58D02B004D4500D9A84B5246584637
:1015A000216AA76AB847002858DD43469B688244F1
:1015B0002D1A181A43469860EAD1002003B0F0BCF7
:1015C000BB46B246A946A046F0BD21005846FEF7EC
:1015D0005BFF002800D02DE14246A38916689A07D8
:1015E000D1D4DA0742D4002200279146002F25D01B
:1015F00080229200A568134200D180E0AA46BD4235
:1016000000D9AFE09022D200134200D0BBE02068A6
:101610005246494600F0CCF9A3685D1BA5603D0029
:10162000002723685344236043469B68A9445D1BFD
:1016300043469D60C1D0A389002FD9D13268776815
:1016400091460836D2E7336875689A4608369FE7B0
:1016500021000198FFF72CF800282FD00C22A35E60
:10166000402201201343A3814042A7E70023002228
:10167000B14600271E005B46002092460193002FD2
:1016800027D000282FD03300BB469F4200D99B466D
:10169000206822696369904204D9A2689D18AB450D
:1016A00000DD9EE05B4561DCA56A5246216A019837
:1016B000A847051ED2DD0120761BC9D043469B6892
:1016C000AA447F1B5D1B43469D6000D175E7002F38
:1016D000D7D14B461B689A464B465F6808239C4609
:1016E000E144002FF5D03A000A21504600F0D4F82A
:1016F000002800D195E053460130C61AC3E72068A0
:101700002369984216D863699A46BB4212D84C4B5B
:1017100038009F4200D94B48514600F0A9FA534681
:10172000A56A43434A465846216AA847051E95DDE7
:101730007F1B79E7BD4200D93D002A00494600F0F1
:1017400037F9A36822685B1B5219A3602260002B43
:10175000EED121005846FEF7ABFF002800D07DE710
:101760007F1B61E73D00BA46206851E75A46514663
:1017700000F01EF95A46A3685D469B1AA3602368D1
:101780005B44236097E7606922682169551A42002B
:101790001218D00F8218681C5210C0199246019579
:1017A000904201D9824602005B0529D511005846B6
:1017B000FFF74EFA051E37D0019A216900F0A6F80E
:1017C000A389214A134080221343A3815246019BDF
:1017D0002561E818D31A3D00BA4620606261A36013
:1017E00016E751462A0000F0E3F8236821005B1950
:1017F00001982360FEF75CFF002800D15BE72DE72E
:10180000584600F02FF9051EE0D121695846FFF730
:10181000BFF980225946A3899343743A1BB20A60E8
:101820001EE77B1C1E002FE70C235A4613600C2278
:10183000A35E15E701204042C0E6C04600FCFF7FE2
:10184000FEFFFF7FFFFFFF7F7FFBFFFF002370B5E1
:10185000064D040008002B6000F05AF9431C00D02C
:1018600070BD2B68002BFBD02360F9E794000020AB
:1018700070B50400080011001A000023054D2B600C
:1018800000F04EF9431C00D070BD2B68002BFBD03C
:101890002360F9E79400002070B5CCB283070DD027
:1018A000531E002A0FD0032504E00130284206D041
:1018B000013B08D30278A242F7D170BD1300032B7D
:1018C0000CD8002B01D10020F7E7C31802E001304B
:1018D0008342F8D00278A242F9D1EEE7FF252940F1
:1018E0000D0229430D04074E0D43026806496A4064
:1018F000511891433142E8D1043B0430032BF4D812
:10190000DFE7C04680808080FFFEFEFEF0B5C64661
:1019100000B50F2A41D903270D003E0005430C00F6
:1019200003002E402F423DD11500103D2D09A84641
:101930002D01AC46844427681D001F6067685F6006
:10194000A7689F60E7681034DF6010336545F2D107
:1019500045460F230C2401352D0149191340451923
:10196000144222D08C59AC5104369C1B032CF9D85C
:10197000043B9B0801339B00ED18C91803231A4050
:10198000561E002A06D00023CC5C1A00EC5401330A
:101990009642F9D180BCB846F0BD0500561E002A1B
:1019A000F1D1F7E70500561EEDE71A00F6E7C0464D
:1019B000F0B588420AD98B18984207D2531E002AE4
:1019C00003D0CA5CC254013BFBD2F0BD0F2A0BD836
:1019D0000500561E002AF8D00023CC5C1A00EC54F7
:1019E00001339642F9D1F0E703270D003E0005438D
:1019F0000C0003002E402F422BD11500103D2D0965
:101A0000AC462F013F1825681D6065685D60A568BC
:101A10009D60E5681034DD601D001033BD42F2D1D9
:101A200065460F230C2401352D0149191340451932
:101A3000144211D08C59AC5104369C1B032CF9D89C
:101A4000043B9B0801339B00ED18C91803231A407F
:101A5000BFE70500561EBFE71A00BAE77047C04649
:101A60007047C046F8B506000C00150000291BD0D1
:101A7000002A15D000F032F82700A84201D3380020
:101A8000F8BD29003000FFF7E3F8071EF7D021006A
:101A90002A00FFF73BFF21003000FFF779F8EEE75F
:101AA000FFF776F80027EAE71100FFF7D1F8070003
:101AB000E5E7C04670B50400080011001A000023D5
:101AC000054D2B6000F034F8431C00D070BD2B682E
:101AD000002BFBD02360F9E7940000200B1F1B684C
:101AE000181F002B00DB70470B58C018FBE7C046DF
:101AF00058220120014B40421A6070479400002098
:101B000058220120014B40421A6070479400002087
:101B10005822024B00201A607047C04694000020F3
:101B200058220120014B40421A6070479400002067
:101B300058220120014B40421A6070479400002057
:101B4000044A03001068002802D0C31813607047CD
:101B50000148FAE798000020B00100200022430865
:101B60008B4274D303098B425FD3030A8B4244D365
:101B7000030B8B4228D3030C8B420DD3FF220902A7
:101B800012BA030C8B4202D31212090265D0030B66
:101B90008B4219D300E0090AC30B8B4201D3CB035C
:101BA000C01A5241830B8B4201D38B03C01A52419E
:101BB000430B8B4201D34B03C01A5241030B8B42A0
:101BC00001D30B03C01A5241C30A8B4201D3CB028B
:101BD000C01A5241830A8B4201D38B02C01A524170
:101BE000430A8B4201D34B02C01A5241030A8B4273
:101BF00001D30B02C01A5241CDD2C3098B4201D38B
:101C0000CB01C01A524183098B4201D38B01C01A08
:101C1000524143098B4201D34B01C01A524103097F
:101C20008B4201D30B01C01A5241C3088B4201D32E
:101C3000CB00C01A524183088B4201D38B00C01ADB
:101C4000524143088B4201D34B00C01A5241411A02
:101C500000D20146524110467047FFE701B500200F
:101C600000F0F0F802BDC0460029F7D076E77047D3
:101C700003460B437FD4002243088B4274D30309ED
:101C80008B425FD3030A8B4244D3030B8B4228D38E
:101C9000030C8B420DD3FF22090212BA030C8B42B4
:101CA00002D31212090265D0030B8B4219D300E054
:101CB000090AC30B8B4201D3CB03C01A5241830BD9
:101CC0008B4201D38B03C01A5241430B8B4201D389
:101CD0004B03C01A5241030B8B4201D30B03C01AB2
:101CE0005241C30A8B4201D3CB02C01A5241830A2C
:101CF0008B4201D38B02C01A5241430A8B4201D35B
:101D00004B02C01A5241030A8B4201D30B02C01A84
:101D10005241CDD2C3098B4201D3CB01C01A5241EB
:101D200083098B4201D38B01C01A524143098B4274
:101D300001D34B01C01A524103098B4201D30B015D
:101D4000C01A5241C3088B4201D3CB00C01A524182
:101D500083088B4201D38B00C01A524143088B4247
:101D600001D34B00C01A5241411A00D201465241E0
:101D7000104670475DE0CA0F00D04942031000D3FF
:101D80004042534000229C4603098B422DD3030A54
:101D90008B4212D3FC22890112BA030A8B420CD364
:101DA000890192118B4208D3890192118B4204D38D
:101DB00089013AD0921100E08909C3098B4201D30D
:101DC000CB01C01A524183098B4201D38B01C01A47
:101DD000524143098B4201D34B01C01A52410309BE
:101DE0008B4201D30B01C01A5241C3088B4201D36D
:101DF000CB00C01A524183088B4201D38B00C01A1A
:101E00005241D9D243088B4201D34B00C01A5241F0
:101E1000411A00D20146634652415B10104601D37D
:101E20004042002B00D54942704763465B1000D307
:101E3000404201B5002000F005F802BD0029F8D0AD
:101E400016E770477047C046F0B54F464646D6463F
:101E50004502C0B547000C1C6D0A3F0EC60F002F8F
:101E600000D170E0FF2F00D175E0EB008025ED047C
:101E70001D43002399469A467F3F6002430A9846D5
:101E800063001B0EE40F002B4ED0FF2B46D04246C2
:101E9000D0008022D2040243904600227F3B3100D2
:101EA000FF1A4B466140C9B213430F2B00D9B5E06E
:101EB0006E489B00C3589F4600239846260045461F
:101EC00092465346022B00D189E0032B00D19EE0BD
:101ED000012B18D03B007F33002B69DD6A0704D04B
:101EE0000F222A40042A00D004352A0103D5604B72
:101EF0001D403B008033FE2B00DD70E0AD016D0A1C
:101F0000D8B202E00E0000200025C0052843F607E5
:101F10003043E0BCBA46B146A846F0BD4346002B6C
:101F20003FD10222FF3F03E04346002B2DD1012287
:101F300031004B466140C9B213430F2B34D84D4892
:101F40009B00C3589F46002D13D104239946033BA1
:101F500000279A4691E7002D05D108239946063BB4
:101F6000FF279A4689E70C239946093BFF279A46A3
:101F700083E7280000F0DAFC7627431F9D4000230A
:101F80007F4299469A463F1A77E7404600F0CEFCDA
:101F90004246431F9A4076235B4290461B1A00221A
:101FA0007DE7FF2303227AE70E00FF200025ACE740
:101FB0000120C01A1B28A6DC9E372A00BD40C24063
:101FC0006B1E9D4115436B0704D00F232B40042B40
:101FD00000D004356B0144D50120002595E7FF2092
:101FE000002592E780250026FF20ED038DE70023E2
:101FF00098468020C003054209D04346034206D1DB
:10200000454605436D022600FF206D0A7DE78020CE
:10201000C00305436D02FF206D0A76E742466B015F
:102020005001834219D21B220025013F01261C00CA
:102030006D005B00002C01DB984201D81B1A354370
:10204000013A002AF3D15A1E93411D433B007F33CE
:102050000E00002B00DD41E7AAE71A2201251B1A1A
:10206000E4E7AD0100206D0A4FE7C046744900085F
:10207000FFFFFFF7B4490008F8B5002813D0C317D5
:10208000C6185E40C40F300000F050FC9E230500CF
:102090001B1A962B0FDC082801DD083DAE407602A6
:1020A000760AD8B202E0002400200026C0053043A2
:1020B000E4072043F8BD992B0CDD05223100121AEC
:1020C000D1400A00010030001B318840411E884188
:1020D00002431600052D12DC31000D4F3940720706
:1020E00009D00F203040042805D004314A0102D520
:1020F0009F2339405B1B89014E0AD8B2D6E76A1F7D
:1021000096403100024F39407207F4D0E9E7C046EB
:10211000FFFFFFFBF0B54F464646D6460D000400D4
:10212000C0B51F0011002803620F400A10437A0057
:10213000520DE3003C039146640AFA0F4F0F6E0004
:1021400027439246B846760DED0FC900954200D15F
:1021500099E04C46341BA446002C00DC7CE04A4647
:10216000002A00D1B8E0C54A964200D11CE1802285
:102170003C0012041443A0466246382A00DD61E1A7
:102180001F2A00DDCCE164462022121B4446944005
:102190000F00A14664469140E7404C464A1E9141DB
:1021A0003C43424621436446E240801A5C1AA34203
:1021B0009B415F42C71B3B0200D4D0E07F027F0AF5
:1021C000002F00D1FFE0380000F0B0FB010008391B
:1021D000202322005B1A8F40DA408C401743B14223
:1021E00000DAFFE0891B4B1C1F2B00DDA8E020223A
:1021F0003900D21A200094409140D840621E944188
:10220000DF40002601430C43630709D00F2323401E
:10221000042B05D0231DA342A44164423F191C0096
:102220003B0200D49EE0954B01369E4200D1B7E0C0
:10223000934AE40817407B0771057F0223433F0B55
:102240004A0D12053A43ED072A4318001100E0BC7D
:10225000BA46B146A846F0BD002C4BD04C46A41B54
:10226000A446002E00D023E104001C4300D1AFE1BE
:102270006246541E012A00D115E2804DAC4500D1C2
:10228000C8E1A4461BE14A46B21A9446002A00DC83
:10229000ACE04A46002A43D0784A964200D1AFE1EA
:1022A00080223C0012041443A0466246382A67DCB0
:1022B0001F2A00DC5FE14746203AD7406246202AC9
:1022C00005D064464022121B4446944021434A1ED6
:1022D00091410C003C4357E03A000A4300D105E12C
:1022E0002200013A012C00D182E1644CA4455BD06C
:1022F000944641E7634C771C274200D0C4E00400B9
:102300001C43002E00D069E1002C00D1BFE14446FF
:102310000C4300D0D0E14207DB081343C00829E09A
:102320003A000A4300D170E162466446013A012C4A
:1023300000D1E0E0514CA44500D161E19446B4E7FE
:102340003A001F39CA401100202B03D04022D31A73
:102350009F403C43631E9C41002700260C436307BB
:1023600000D053E7B446E4087B072343F808434A08
:1023700094451DD06246070352053F0B520D60E79E
:1023800044460C43621E9441E4189C429B415F42C8
:102390003F183B02E3D5394B01369E4200D0B5E0F1
:1023A0003200002700234CE74207DB081343C00834
:1023B0001A00024300D1E1E180273F0307433F03B6
:1023C0002E4A3F0B3DE7200000F0B0FA0100183123
:1023D0001F2900DCFCE60838844027000024B142B5
:1023E00000DBFFE6264A761A17400DE7002A2FD0B9
:1023F0004A46921B9446002E00D1ADE01F4A9145FB
:1024000000D10FE18022120410436246382A00DD19
:102410000FE11F2A00DD80E1644620221E00121B0E
:102420006746040093409440FE405A1E9341F84092
:1024300034431C43804464188C42BF417F424E4663
:102440004744A6E742460A4311004A1E9141ADE6C1
:102450000C4C721C224200D0A1E002001A43002E54
:1024600000D0FAE0002A00D145E13A000A4300D04A
:1024700046E14207DB081343C0087BE7FF07000083
:10248000FFFF7FFFFE07000047465C1AC21BA34206
:10249000BF417F42B94617004A46BF1A3A0200D5EB
:1024A0008DE023003B4300D08AE60020002561E751
:1024B000B44CA14500D1ADE08024240420436446FF
:1024C000382C3DDC62461F2C00DDB7E020251E00C5
:1024D0002D1B0400AB40AC40D640D04042465D1EB0
:1024E000AB413443121A904623432CE04207DB08E9
:1024F0001343C0083BE75C189C429B4140445B424D
:10250000C71801263B0200D429E702269E4A630829
:102510001740012214401C43FB071C437F0873E64D
:102520004446203AD4406246202A05D067464022DD
:10253000D21B4746974039434A1E9141214335E615
:102540000343581E8341CC1AA142BF4143467F42F8
:1025500055464E46DF1B2EE602001A4300D1BDE071
:1025600062466446013A012C00D1E5E0854CA44561
:1025700058D0944649E764462022121B44469440B2
:102580000F00A14664469140E7404C464A1E9141E7
:102590003C4342460C436146CA408018F4E6794CFD
:1025A000A24200D1FDE6591899429B4140445F4246
:1025B000C719FC07490816000C437F08CFE6CC1A60
:1025C000A142BF4143467F42181A5546C71BF7E553
:1025D000C9087B0755460B43F808C8E6002C00D015
:1025E00081E043460B4315D1802000250003E3E63C
:1025F0005C1AA3429B41C71B5B420126FF1ADAE526
:102600004207DB081343C008D2E64207DB08134346
:10261000C008ACE643464246C9085B0755460B4333
:10262000D008C5E6434642465B07C9080B43D008BD
:10263000BEE603431C00631E9C41FCE60200203CF6
:10264000E24014006246202A03D04025AD1AA8407B
:102650000343581E8341234375E7002AE2D03A0022
:102660000A43CDD04207DB0813438022C00812037F
:10267000104206D0FC08144203D12000CB087A0790
:1026800013435A0FDB005207DB08134390E643461F
:102690000B4300D109E743464246C9085B0755464C
:1026A0000B43D00866E6CC1AA14289413F1A494241
:1026B000554601267F1A7EE542465C1A871AA342D8
:1026C00092415242BF1A3A023DD5CC1AA1428941E9
:1026D000434649421F1A55467F1A95E57B07C908AC
:1026E0000B43F80843E64446DB080C4330D142076D
:1026F0001343C0085CE67B07C9080B43F80839E6BA
:102700005C189C429B4140445B42C7183B0200D48A
:1027100025E61D4B01261F4021E60400203AD44047
:102720006246202A04D040226646921B9040034312
:102730005A1E93411C437EE65C188C4289414044FA
:1027400049424718DDE623003B4300D1ADE606E6EB
:10275000440723438024C0082403204208D0424673
:10276000D608264204D155463000CB0851070B430A
:102770005A0FDB00DB085207134319E60023014A16
:102780001F005EE5FF070000FFFF7FFF70B54300FD
:102790004602C40FFE201B0E591C750A08420CD0BD
:1027A000E022920094466D07360B63441B053343C9
:1027B000E40723432800190070BD002B14D1002D1D
:1027C0001BD0280000F0B2F80A281CDC0B232E00D6
:1027D0001B1ADE40030015339D400E4A3603121AC1
:1027E0005205360B530DE1E7002D09D08022360B40
:1027F0001203094B6D071643D8E700230026D5E7DF
:102800000026054BD2E703000B3B9D402E00002520
:10281000E3E7C04689030000FF07000002004B0009
:10282000F0B55B0D0C033D4E640A400F5F1CC90FF1
:102830000443D50037420AD039481E18FE2E16DD53
:10284000FF200024C0052043C9070843F0BD002B2A
:1028500006D12C4326D005229201540AD8B2F1E7C2
:102860002543EDD08020C0030443FF20EAE7002E7B
:102870001BDD9201531E9A41E4006D0F22432A434F
:10288000530748D00F231340042B00D00432802379
:10289000DB0413403FD0701CFE2ED1D09201540AAD
:1028A000C0B2CFE700200024CCE73200173222DB91
:1028B0008020000420431E24A41B1F2C1DDD0222A7
:1028C0005242961B0200F2401600202C04D0154AFA
:1028D00094466344984005432A00531E9A4132436C
:1028E00000265307CED180241300E40401202340A6
:1028F0002242D3D1B0E70023ADE70B4A94462A0029
:10290000E24014002A0063449A409840551EAA41B0
:1029100002432243E4E733009EE7C046FE0700007F
:1029200080FCFFFFA2FCFFFF82FCFFFF1C210123B4
:102930001B04984201D3000C10391B0A984201D3A2
:10294000000A08391B09984201D30009043902A280
:10295000105C40187047C0460403020201010101E7
:10296000000000000000000010B5140092B2230027
:10297000044801F03CFE002801D0002010BD2000DA
:10298000FCE7C046F000002072B6FEE700B597B045
:10299000302200210AA8FDF701FC1022002106A820
:1029A000FDF7FCFB1422002101A8FDF7F7FB032330
:1029B0000A93023B0B930D930F330E930E3B12932E
:1029C00080235B0213930AA800F036FF002817D17A
:1029D00007230693053B07930023089309930021DF
:1029E00006A801F0A1F900280CD1202301930023AF
:1029F000049301A801F048FA002805D117B000BDE2
:102A0000FFF7C2FFFFF7C0FFFFF7BEFFF0B5C646F6
:102A100000B584B001F0F8FAFFF7B8FF00F052F803
:102A200000F080F800F0E2F800F0DAF93DE0214C27
:102A3000200000F0BBFA6569A36998462069FFF79A
:102A4000A5FE06000F004046FFF7A0FE029003918E
:102A5000281CFFF79BFE0090019132003B001648B6
:102A6000FDF708FC656AA36A9846206AFFF78EFEA8
:102A700006000F004046FFF789FE02900391281CD4
:102A8000FFF784FE0090019132003B000B48FDF7F8
:102A9000F1FB0023E15E0223E25E0420235E08488E
:102AA000FDF7E8FB642001F0D1FA00F077FA012885
:102AB000BDD0F7E780010020F4490008304A000843
:102AC0006C4A000800B589B01422002103A8FDF764
:102AD00065FB124B59698020C003014359615A6953
:102AE00002400092009A5969802080020143596196
:102AF0005A6902400192019A5A698021C9020A4327
:102B00005A615B690B400293029B2023039303A944
:102B1000034801F0ADFA09B000BDC0460010024004
:102B20000004004810B51448144B0360144B436074
:102B3000002383600122C260036143618361C3613A
:102B4000036200F019FC00280CD100210A4800F0B3
:102B50001DFE002809D10021074800F043FE00288F
:102B600006D110BDFFF710FFEFE7FFF70DFFF2E70B
:102B7000FFF70AFFF5E7C0469C0000200054004024
:102B80000B02000010B588B004001422002103A835
:102B9000FDF704FB2268124B9A4201D008B010BD29
:102BA000104C62698021C9020A43626163690B406B
:102BB0000193019BC0230393AE3B04930F3B069309
:102BC000023B079303A9084801F052FAE269802109
:102BD00089030A43E261E3690B400293029BDDE74C
:102BE00000540040001002400004004810B50C489A
:102BF0000C4B0360E1235B02436000238360C360EE
:102C000003610C2242618361C3610362436201F08C
:102C1000CFFD002800D110BDFFF7B6FEFBE7C04690
:102C2000F00000200044004010B588B004001422D9
:102C3000002103A8FDF7B2FA2268124B9A4201D094
:102C400008B010BD104BD969802292021143D9619E
:102C5000D9691140019101995969114359615B6921
:102C60001A400292029B0C2303930A3B0493013304
:102C70000693023B0793902003A9C00501F0F8F9E1
:102C8000DEE7C046004400400010024000B587B0B7
:102C900017236B44197002000121029101910093E6
:102CA0000123CF31024800F0CDFB07B000BDC04684
:102CB0009C00002000B585B002000123029301931F
:102CC0000091D021024800F08DFC05B000BDC04647
:102CD0009C00002000B585B0012302930191009271
:102CE0000200D021024800F07DFC05B000BDC046C6
:102CF0009C00002010B584B004006A460E213B20E1
:102D0000FFF7E8FF6B461A7812025B7813432380C3
:102D10006B469A781202DB78134363806B461A790C
:102D200012025B791343A3806B469A791202DB7916
:102D30001343E3806B461A7A12025B7A13432381B2
:102D40006B469A7A1202DB7A134363816B461A7BD5
:102D500012025B7B1343A38104B010BD02281DD077
:102D600007D800280BD001280CD1174B174A1A603E
:102D700008E0032806D1144B154A1A6002E0124BF2
:102D8000144A1A60022919D00CD8002911D001293F
:102D900013D1114B8C22D2051A600EE00A4B0F4A58
:102DA0001A60EFE7032908D10B4B8A22D2051A607B
:102DB00003E0094B8D22D2051A607047064B8B2227
:102DC000D2051A60F9E7C0467C010020000083426A
:102DD000333383410000034378010020333303423F
:102DE00030B585B0322001F031F900236A46D37343
:102DF0003848FDF7C9FA0F236B4419007520FFF717
:102E000059FF6B46D97B68290FD03348FDF7BCFAD0
:102E10000F236B4419783148FDF72CFA3048FDF741
:102E2000B3FA642001F012F9F8E72E48FDF722FA10
:102E300080216B20FFF72AFF642001F007F90021B1
:102E40006B20FFF723FF322001F000F92721192022
:102E5000FFF71CFF322001F0F9F800211A20FFF7DC
:102E600015FF322001F0F2F800211B20FFF70EFFC2
:102E7000322001F0EBF800211C20FFF707FF322081
:102E800001F0E4F800210020FFF768FF164B1868F6
:102E9000FFF77CFC04000D00144B1868FFF776FC6C
:102EA0000090019122002B001148FDF7E3F9102159
:102EB0003720FFF7EBFE322001F0C8F8012138205F
:102EC000FFF7E4FE322001F0C1F80A48FDF75CFA92
:102ED00005B030BDB44A0008384B0008404B00082C
:102EE0006C4B0008C84A00087C01002078010020D3
:102EF000E84A00081C4B000870B504000023C05EBF
:102F0000214B1D68FFF7B8F8291CFEF79DFF2061D3
:102F10000223E05EFFF7B0F8291CFEF795FF606121
:102F20000423E05EFFF7A8F8291CFEF78DFFA061DF
:102F30000623E05EFFF7A0F81449FEF785FFFFF7D0
:102F400025FC134A134BFFF7E5F8FFF767FCE06138
:102F50000823E05E104B1D68FFF78EF8291CFEF772
:102F600073FF20620A23E05EFFF786F8291CFEF754
:102F70006BFF60620C23E05EFFF77EF8291CFEF712
:102F800063FFA06270BDC046780100200000AA4324
:102F9000A4703D0AD74342407C01002010B5202197
:102FA000014801F02BF910BD0004004810B50400E1
:102FB000FFF7A0FE2000FFF79FFF10BDFEE7FEE732
:102FC0007047704710B501F02FF810BD82B00A4B62
:102FD000996901221143996199690A400092009A06
:102FE000DA69802149050A43DA61DB690B40019304
:102FF000019B02B07047C0460010024003689A6906
:10300000920701D500229A6203689A69D20703D415
:103010009A6901210A439A617047000010B5890539
:10302000890D120411431943029B194349004908B1
:10303000046862685B0D8020C000034002480343BF
:103040009A431143616010BDFF63FF03F0B5C646AC
:1030500000B504000D00170001688B6910221600EE
:103060001E401A4200D175E01023CB610023984620
:10307000002623689869820631D4002E2FD16B1C5C
:10308000F7D000F0DDFFC01BA84201D8002DF0D121
:1030900021684B688022D20113404222A25CD2B246
:1030A0008869000403D5002B01D1202A0ED12368A2
:1030B0009B699B06DDD400F0C3FFC01B1928F6D91D
:1030C000202342461A4390460126D2E74A688023CD
:1030D000DB0113434B6000F0B3FF0700E7E7002E6E
:1030E00001D12022DA610426434633431E00012524
:1030F00022689369D90504D501210E43FF31D161BE
:1031000001255A0506D50822164322688021C900E8
:10311000D16101259B051FD502231E432368802210
:103120009200DA6101252000FFF768FF22685368EA
:103130000B490B405360636C1E436664412320229D
:10314000E25400232232A354023AA354280080BC44
:10315000B846F0BD0025CBE7002DF7D0E3E7C04629
:1031600000E800FE70B504000D00160023689B699E
:103170009B0720D4320029002000FFF767FF0028BA
:103180001BD16B1CF2D000F05BFF801BA84201D862
:10319000002DEBD123689B699B07E7D4636C202249
:1031A000134363644123E25400232232A354023ABE
:1031B000A354012000E0002070BD0120FCE7F0B521
:1031C000CE4600B582B007000D00160099463B6858
:1031D0009C692C40641B63425C410196B44221D13E
:1031E0004B460133F3D000F02BFF089BC01A484533
:1031F00002D84B46002BEAD13B689B692B405B1BF6
:103200005A425341019A9342E1D17B6C20221343ED
:103210007B644123FA5400232232BB54023ABB544C
:10322000012000E0002002B080BCB946F0BD0000E3
:1032300070B582B0040015001E008023F2B2194858
:1032400000905B042000FFF7E9FE079A0699200032
:10325000FFF788FF00281ED1012E0ED12368EDB2A2
:103260009D62079B0093069B002280212000FFF7B0
:10327000A6FF002813D102B070BD23682A0A9A6203
:10328000079A06992000FFF76DFF002805D12368F3
:10329000EDB29D62E5E70120EDE70120EBE70120BB
:1032A000E9E7C0460020008070B582B00400150038
:1032B0001E00DAB2184B00930023FFF7AFFE079A07
:1032C00006992000FFF74EFF00281ED1012E0ED1D7
:1032D0002368EDB29D62079B0093069B002240216C
:1032E0002000FFF76CFF002813D102B070BD2368E7
:1032F0002A0A9A62079A06992000FFF733FF0028EE
:1033000005D12368EDB29D62E5E70120EDE70120DC
:10331000EBE70120E9E7C0460020008070B504001B
:103320000D00160003E023689B699B0612D52368F5
:103330009B699B061BD4320029002000FFF786FE04
:10334000002816D100F07CFE801BA842EBD8002D8F
:10335000EDD1E8E7636C2022134363644123E25418
:1033600000232232A354023AA354012000E000209B
:1033700070BD0120FCE7000010B5041E59D04123A8
:10338000C35C002B43D041232422E25422681368FB
:1033900001218B4313602268274B61680B40136146
:1033A0002268936825490B409360E368012B34D071
:1033B000226884231B02A1680B439360E368022BFD
:1033C00032D0226851681E4B0B4353602268D36889
:1033D0001A490B40D360236962691343A269120240
:1033E00021681343CB602268E369216A0B431360B1
:1033F0002268136801210B43136000236364412298
:103400001F31A15423630132A354002010BD403367
:103410000022C254FFF7B6FBB5E7226880231B02E7
:10342000A1680B439360C9E72368802212015A60A8
:10343000C7E70120EAE7C046FFFFFFF0FF7FFFFF7D
:1034400000800002F0B587B0040003910492059358
:103450000CAB20CB1F884123C35C202B00D0B3E0F2
:10346000002D18D0002F16D04023C35C012B00D1B3
:10347000ADE040230122C25400F0E2FD06008021AD
:1034800000901923012209022000FFF798FE00286E
:1034900006D0012099E080239B006364012094E022
:1034A00041232122E25401331F32E254002363649A
:1034B00065626785636301960E9B0093059B049A82
:1034C00003992000FFF7B4FE00280FD1638D9BB253
:1034D000FF2B10D9FF2323857F3B002200925B0442
:1034E000FF3203992000FFF799FD21E040230022DD
:1034F000E254012069E0628D92B222858023D2B22B
:10350000002100919B0403992000FFF787FD0FE045
:10351000628D92B222858023D2B2002100919B0459
:1035200003992000FFF77AFD638D9BB2002B34D006
:1035300032000E992000FFF715FE002849D12368BC
:10354000626A12789A62636A01336362638D013B37
:103550009BB26385238D013B9BB22385628D92B222
:10356000002AE1D0002BDFD100960E9B00228021A3
:103570002000FFF724FE00282DD1638D9BB2FF2B86
:10358000C6D9FF2323857F3B002200925B04FF32D4
:1035900003992000FFF742FDC6E732000E99200094
:1035A000FFF7BCFE002818D123682022DA612168C9
:1035B0004B680B4D2B404B604123E25400232232D9
:1035C000A354023AA35400E0022007B0F0BD022049
:1035D000FBE70120F9E70120F7E70120F5E7C04606
:1035E00000E800FEF0B587B0040003910492059353
:1035F0000CAB20CB1F884123C35C202B00D0B5E04F
:10360000002D18D0002F16D04023C35C012B00D111
:10361000AFE040230122C25400F012FD06008021D9
:1036200000901923012209022000FFF7C8FD00289D
:1036300006D001209BE080239B006364012096E07C
:1036400041232222E25401331E32E25400236364F8
:1036500065626785636301960E9B0093059B049AE0
:1036600003992000FFF720FE00280FD1638D9BB245
:10367000FF2B10D9FF2323857F3B424A00925B0436
:10368000FF2203992000FFF7C9FC21E0402300221C
:10369000E25401206BE0628D92B222858023D2B287
:1036A000384900919B0403992000FFF7B7FC0FE015
:1036B000628D92B222858023D2B2002100919B04B8
:1036C00003992000FFF7AAFC638D9BB2002B36D034
:1036D00000960E9B002204212000FFF770FD0028B9
:1036E00049D123685B6A626A1370636A013363625B
:1036F000238D013B9BB22385628D013A92B2628594
:10370000628D92B2002ADFD0002BDDD100960E9B95
:10371000002280212000FFF752FD00282DD1638D6B
:103720009BB2FF2BC4D9FF2323857F3B002200924D
:103730005B04FF3203992000FFF770FCC4E73200FE
:103740000E992000FFF7EAFD002818D123682022F7
:10375000DA6121684B680C4D2B404B604123E254E9
:1037600000232232A354023AA35400E0022007B0FF
:10377000F0BD0220FBE70120F9E70120F7E7012077
:10378000F5E7C0460024008000E800FEF0B54123C4
:10379000C35C202B20D12033C35C012B1ED04024DE
:1037A000012202554125242343550668336893437B
:1037B0003360066833680A4F3B40336006683368FD
:1037C0001943316001680B6813430B602023435594
:1037D000002303550020F0BD0220FCE70220FAE799
:1037E000FFEFFFFFF0B54123C35C202B1ED1203338
:1037F000C35C012B1CD04024012202554125242307
:103800004355066833689343336006683368094F4D
:103810003B4009021943316001680B6813430B6098
:1038200020234355002303550020F0BD0220FCE770
:103830000220FAE7FFF0FFFF70B582B0041E00D14E
:103840002EE20368DB0726D5AE4B5A680C231340E3
:10385000042B18D0AB4B5A680C231340082B0ED006
:103860006368012B3CD0002B51D1A64B1A68A649A6
:103870000A401A601A68A5490A401A6036E0A14B4E
:103880005B68DB03ECD59F4B1B689B0303D5636828
:10389000002B00D107E223689B0772D5994B5B6828
:1038A0000C221A425DD0974B5A680C231340082B08
:1038B00053D0E368002B00D185E0924A13680121C0
:1038C0000B43136000F0BCFB05008E4B1B689B078D
:1038D00070D400F0B5FB401B0228F6D90320E0E1CC
:1038E000884A116880235B020B4313606368002BD6
:1038F00025D000F0A5FB0500824B1B689B03CAD4B2
:1039000000F09EFB401B6428F6D90320C9E1052B7B
:1039100009D07C4B1A687C490A401A601A687B49B6
:103920000A401A60E2E7774B19688022D2020A4304
:103930001A601968802252020A431A60D6E700F022
:103940007FFB05006F4B1B689B03A4D500F078FB41
:10395000401B6428F6D90320A3E16A4B5B68DB03B4
:10396000A7D4684B1B689B0703D5E368012B00D0E5
:103970009BE164490B68F82293432269D200134308
:103980000B6023681B0744D5E369002B2ED05D4AEA
:10399000536A01210B43536200F052FB0500594B5F
:1039A0005B6A9B0735D400F04BFB401B0228F6D91D
:1039B000032076E153490B68F82293432269D20031
:1039C00013430B60DDE74F4A136801218B431360FB
:1039D00000F036FB05004B4B1B689B07D1D500F070
:1039E0002FFB401B0228F6D903205AE1454A536AAF
:1039F00001218B43536200F023FB0500414B5B6ABE
:103A00009B0706D500F01CFB401B0228F6D90320BB
:103A100047E123685B0700D480E03A4BDB69DB00B9
:103A20001DD4384AD169802040050143D161D36952
:103A300003400193019B0125354B1B68DB0510D525
:103A4000A368012B21D0002B36D12E4B1A6A0121FD
:103A50008A431A621A6A03318A431A621AE00025FD
:103A6000EAE72B4A116880235B000B43136000F0E8
:103A7000E7FA0600264B1B68DB05E1D400F0E0FA0C
:103A8000801B6428F6D903200BE11E4A136A01212A
:103A90000B431362A368002B24D000F0D1FA060078
:103AA000184B1B6A9B0737D400F0CAFA801B194BCE
:103AB0009842F5D90320F4E0052B09D0114B1A6A7E
:103AC00001218A431A621A6A03318A431A62E1E7C2
:103AD0000C4B1A6A04210A431A621A6A03390A4310
:103AE0001A62D7E700F0ACFA0600064B1B6A9B0788
:103AF00012D500F0A5FA801B064B9842F5D9032099
:103B0000CFE0C04600100240FFFFFEFFFFFFFBFFBB
:103B10000070004088130000012D33D02368DB06BD
:103B200010D56369012B33D0053351D1654A536BEE
:103B300004218B435363536BF4318B43A169C90058
:103B40000B435363236A002B00D1B0E05D4A5168F8
:103B50000C220A40082A00D18AE0022B4FD0594A91
:103B6000136859490B40136000F06AFA0400554B82
:103B70001B689B017AD500F063FA001B0228F6D976
:103B800003208EE04F4AD36950490B40D361C5E70B
:103B90004C4B5A6B04210A435A635A6B03390A434C
:103BA0005A6300F04DFA0500464B5B6B9B0706D449
:103BB00000F046FA401B0228F6D9032071E0414983
:103BC0004B6BF8229343A269D20013434B63B9E7CE
:103BD0003C4B5A6B04210A435A635A6B03398A439C
:103BE0005A6300F02DFA0500364B5B6B9B07A9D595
:103BF00000F026FA401B0228F6D9032051E0314A92
:103C0000136831490B40136000F01AFA05002D4B80
:103C10001B689B0106D500F013FA401B0228F6D959
:103C200003203EE0274BDA6A0F218A43E16A0A4308
:103C3000DA625A6826490A40A16A606A01430A4367
:103C40005A601968802252040A431A6000F0F8F999
:103C500004001C4B1B689B0106D400F0F1F9001B0B
:103C60000228F6D903201CE000201AE0002018E00A
:103C7000012B1ED0134B5A68D96A80235B02134074
:103C8000606A834217D10F230B40E16A8B4214D143
:103C9000F0239B031A40A36A9A4210D1002000E04F
:103CA000012002B070BD0120FBE70120F9E70020F0
:103CB000F7E70120F5E70120F3E70120F1E7012014
:103CC000EFE7C04600100240FFFFFFFEFFFFFFEFDF
:103CD000FFFFC2FF10B5104B5A680C231340082B8E
:103CE00001D00E4810BD910C073319400C48445CBC
:103CF0000949C96A0B400B49C95CD30304D507487D
:103D0000FDF72CFF6043EDE763011B1B9801C01A10
:103D1000C00000190002E5E70010024000127A001E
:103D2000984B0008A84B000870B504000D0000284F
:103D300000D17EE0434B1A68012313408B420AD224
:103D400040490B68012293432B430B600B681A40D8
:103D5000AA4200D06FE023689A070ED55B0705D50D
:103D6000394A5168E023DB000B435360364A5368FD
:103D7000F0218B43A1680B4353602368DB072DD5EB
:103D80006368012B1ED0022B22D02F4A12689207A3
:103D900053D52D494A680320824313434B6000F0FA
:103DA0004FF90600284B5B680C221A4063689B00A1
:103DB0009A4213D000F044F9801B244B9842F1D969
:103DC000032035E0204A12689203E2D401202FE05C
:103DD0001D4A12689201DCD4012029E0194B1A68AF
:103DE00001231340AB4209D916490B6801229343C2
:103DF0002B430B600B681A40AA4220D123685B0753
:103E000006D5114A536812490B40E1680B435360D1
:103E1000FFF760FF0C4B5A6812090F2313400D4A3D
:103E2000D35CD8400C4B1860032000F0C5F800208C
:103E300070BD0120FCE70120FAE70120F8E701202E
:103E4000F6E7C04600200240001002408813000040
:103E5000FFF8FFFFB84B00086C000020014B18680A
:103E60007047C0466C00002010B5FFF7F7FF044B09
:103E70005A68120A07231340024AD35CD84010BD87
:103E800000100240C84B000870B582B004000368FF
:103E9000DB0337D5424BDB69DB0053D4404AD169A1
:103EA000802040050143D161D36903400193019B08
:103EB00001253C4B1B68DB0546D5394B1A6AC023EC
:103EC0009B00110019401A4213D0626813408B42C4
:103ED0000FD0334B186A344A02401E6A80214902CF
:103EE00031431962196A314E314019621A62C307AF
:103EF0003ED42B4A136A2C490B4061680B43136272
:103F0000012D44D02368DB0706D5254A136B032116
:103F10008B43A1680B43136323689B0606D5204A95
:103F2000136B10218B43E1680B43136323685B051C
:103F300032D51B4A136B40218B4321690B4313631A
:103F400000202AE00025B4E7164A116880235B00B0
:103F50000B43136000F074F80600124B1B68DB057E
:103F6000ABD400F06DF8801B6428F6D9032014E070
:103F700000F066F806000A4B1B6A9B07B9D400F0F4
:103F80005FF8801B0A4B9842F5D9032005E0D369FE
:103F900008490B40D361B5E7002002B070BDC046B0
:103FA0000010024000700040FFFCFFFFFFFFFEFF1B
:103FB00088130000FFFFFFEF10B504000F4B1978C6
:103FC000FA208000FDF7CAFD01000D4B1868FDF7CF
:103FD000C5FD00F04BF900280DD1032C01D90120BB
:103FE0000AE0013000222100404200F00FF9054BA9
:103FF0001C60002000E0012010BDC04664000020CD
:104000006C0000206800002010B5064A13681021DB
:104010000B4313600320FFF7CFFFFEF7D7FF00200D
:1040200010BDC04600200240034A1168034B1B78B4
:104030005B1813607047C046AC010020640000208C
:10404000014B18687047C046AC01002070B50400F1
:10405000FFF7F6FF0500631C02D0044B1B78E41841
:10406000FFF7EEFF401BA042FAD370BD64000020B2
:10407000F0B583B0002357E084685F000326BE409C
:10408000B4432600CC68BC40344384604468944305
:104090004A681609012232409A402243426053E0A6
:1040A000DC080834A400265805321A4092000F2775
:1040B0009740BE430F6997403A003243225057E081
:1040C000032600E00026A64034003C430232920062
:1040D000444E9451444A9468EA432600AE434F68E4
:1040E000FF0201D52C4326003F4CA660E468260061
:1040F00016404F68BF0201D52C4326003A4CE660BB
:104100006468260016404F68BF0301D52C43260083
:10411000354C6660246822404E68F60301D52A00BB
:104120002243314C226001330C682200DA4057D020
:1041300001229A40250015401442F4D003244E6811
:104140003440013C012C97D903224C682240032AB9
:1041500009D0C2685E000324B440A24314008A68F8
:10416000B2402243C26003224C682240022A97D008
:1041700004685E0003221700B740BC434F683A4012
:10418000B24022430260C02292024C681442CAD05C
:10419000164CA66901221643A661A4692240019229
:1041A000019A9A08941CA4000E4EA75903241C409F
:1041B000A4000F26A640B7439026F605B04281D052
:1041C0000B4EB04208D00B4EB04207D00A4EB04260
:1041D00000D175E7052676E7012674E7022672E727
:1041E00003B0F0BD00000140000401400010024097
:1041F0000004004800080048000C004803690B4216
:1042000001D0012070470020FCE7000070B50028B5
:1042100011DB8308134EC0339B009D5903242040BB
:10422000C000FF2214008440A54389010A40824057
:104230002A439A5170BD0F230340083B9B08063365
:104240009B00094A944663445C6803221040C00006
:10425000FC3215008540AC4389010A40824022436C
:104260005A60E7E700E100E000ED00E0013880235C
:104270005B0498420FD2094A50600948036A1B0246
:104280001B0AC02109060B43036200239360073316
:104290001360002070470120FCE7C04610E000E0FA
:1042A00000ED00E010B5EFF3108C012282F31088CE
:1042B00001680B68124C23400B608CF31088EFF3FD
:1042C000108C82F3108801688B6893438B608CF3A9
:1042D0001088036E012B06D080232022C2500023B9
:1042E0000366836610BDEFF3108183F310880268C4
:1042F00013683234FF34A343136081F31088EBE773
:10430000DFFEFFFF10B504008368026913434269B2
:104310001343C269134301680A684F4802401343BC
:104320000B60226853684D490B40E1680B435360B2
:10433000226AA3691A4321688B68494803401343E2
:104340008B602368474A934222D0474A934230D039
:104350001023E06980221202904234D0042B00D155
:1043600072E060D8002B68D0022B5AD13F486368B6
:104370005B0818186168FDF7F1FB0200103A3C4B2E
:104380009A4266D823680004000CD860002050E0F0
:10439000384B1A6B03231340022B0CD005D8002B8B
:1043A0000BD0012B0BD10333D3E7032B09D1013BF6
:1043B000CFE70023CDE70823CBE70023C9E710238D
:1043C000C7E71023C5E7042B28D01DD8002B1FD02A
:1043D000022B17D12548400063685B08C01861684C
:1043E000FDF7BCFB0200103A214B9A422FD882B253
:1043F0000F239A434008083B184010432368D860B5
:10440000002016E0012014E0082BE4D0012010E089
:10441000FFF72AFD0028DED100200AE0FFF75AFC52
:10442000F8E7012005E0082B02D1802000029EE77A
:1044300001200023A366E36610BDFFF715FD0028E9
:1044400000D094E70020F4E7FFF744FCF7E70120F1
:10445000EFE70120EDE7C046F369FFFFFFCFFFFF65
:10446000FFF4FFFF003801400044004000127A00D2
:10447000EFFF000000100240436ADB0706D5026828
:1044800053682C490B40816A0B435360436A9B0776
:1044900006D50268536828490B40C16A0B43536034
:1044A000436A5B0706D50268536824490B40016BD9
:1044B0000B435360436A1B0706D5026853682049C3
:1044C0000B40416B0B435360436ADB0606D5026821
:1044D00093681C490B40816B0B439360436A9B06B6
:1044E00006D50268936818490B40C16B0B43936073
:1044F000436A5B060BD50268536814490B40016C94
:104500000B43536080235B03026C9A420AD0436AD8
:104510001B0606D5026853680D490B40816C0B439E
:1045200053607047026853680A490B40416C0B4363
:104530005360ECE7FFFFFDFFFFFFFEFFFFFFFBFF08
:10454000FF7FFFFFFFEFFFFFFFDFFFFFFFFFEFFF3B
:10455000FFFFF7FFFFFF9FFFF8B5CE46474680B548
:1045600006000D0017009946089B98463368DC69E1
:104570002C40641B63425C41BC422FD14346013353
:10458000F4D0FFF75DFD4B46C01A40452BD843469B
:10459000002B2AD033681A685207E7D5DA69120768
:1045A00010D4DA691205E1D5802212011A623000B6
:1045B000FFF778FE84232022F2500C3B0022F254B5
:1045C00003200CE008241C623000FFF76BFE8423FC
:1045D000F4500C3B0022F254012000E00020C0BC4B
:1045E000B946B046F8BD0320F9E70320F7E7F0B578
:1045F000C64600B582B004000D0090461E00C36F91
:10460000202B62D1002965D0002A65D080235B0170
:1046100082689A4204D10369002B01D1CB075DD493
:1046200084230022E250633BE367FFF709FD0700A4
:1046300050234246E2520233E25280235B01A268D9
:104640009A4202D0002398461AE02369002B02D038
:104650000023984614E0A846002511E02023E367D4
:10466000032033E043461B88DB05DB0D22681385FE
:1046700002239C46E0445223E25A013A92B2E252AB
:104680005223E35A9BB2002B0FD000963B0000222E
:1046900080212000FFF760FF0028DFD1002DE1D04E
:1046A0002B78226813850135E5E700963B00002250
:1046B00040212000FFF750FF002802D12023E367AC
:1046C00004E02023E367032000E0022002B080BC66
:1046D000B846F0BD0120F9E70120F7E70120F5E732
:1046E00030B583B0040084230022C250FFF7A8FC39
:1046F00005002268126813070FD423681B685B0744
:1047000029D42023E3678022A35000232366636615
:10471000083AA354002003B030BD8021224B0093FF
:104720000300002289032000FFF716FF0028E4D0D1
:10473000EFF31081012383F310882268136880202F
:104740008343136081F310882023E36758330022EA
:10475000E2547D38DFE78021134B00932B000022C9
:10476000C9032000FFF7F8FE0028CAD0EFF310803D
:10477000012282F3108821680B680C4D2B400B60DE
:1047800080F31088EFF3108082F3108821688B6823
:1047900093438B6080F3108880231F32E250083BE4
:1047A0000022E2540320B6E7FFFFFF01DFFEFFFF18
:1047B00010B5041E2ED0C36F002B21D02423E36735
:1047C0002268136801218B4313602000FFF79AFDD4
:1047D000012814D0636A002B18D1226853680E494F
:1047E0000B405360226893682A218B4393602268B0
:1047F000136829390B4313602000FFF771FF10BDC8
:1048000078330022C254FEF70FFAD7E72000FFF7F3
:1048100033FEE2E70120F2E7FFB7FFFF7047000039
:104820000D488546FFF7FAFF0C480D490D4A002355
:1048300002E0D458C4500433C4188C42F9D30A4A55
:104840000A4C002301E013600432A242FBD3FBF7C1
:1048500083FCFEF7DBF8FEE70020002000000020CC
:1048600070000020144C000870000020B0010020EF
:10487000FEE70000F8B5C046F8BC08BC9E4670478D
:0C488000F8B5C046F8BC08BC9E46704766
:10488C0004000020000000000000000000000000F8
:10489C00000000000000000000000000000000000C
:1048AC0000000000000000000000000000000000FC
:1048BC0000000000000000000000000000000000EC
:1048CC0000000000000000000000000000000000DC
:1048DC0000000000000000000000000000000000CC
:1048EC00000000005A1300085E1200085E12000857
:1048FC005E1200085E1200085E1200085E120008CC
:10490C005E1200085E1200085E1200085E120008BB
:10491C00BA120008721200085E1200085E1200083B
:10492C005E1200085E120008721200085E12000887
:10493C005E1200085E1200085E120008CE1100081C
:10494C0096120008F01200085E1200085E120008B1
:10495C00D01200085E120008961200085E120008C1
:10496C005E120008741300081C200008A81F000821
:10497C00041F0008BC1E0008041F0008E41F0008E8
:10498C00041F0008BC1E0008A81F0008A81F000870
:10499C00E41F0008BC1E0008C21E0008C21E00084E
:1049AC00C21E0008F21F0008A81F0008A81F00085C
:1049BC00041F0008B81E0008041F0008E41F0008AC
:1049CC00041F0008B81E0008A81F0008A81F000834
:1049DC00E41F0008B81E0008C21E0008C21E000812
:1049EC00C21E0008EE1F00084D5055363035302ED3
:1049FC006163635F783A2025662C204D5055363024
:104A0C0035302E6163635F793A2025662C204D503A
:104A1C0055363035302E6163635F7A3A2025660A4D
:104A2C00000000004D5055363035302E6779726FCE
:104A3C005F783A2025662C204D5055363035302E77
:104A4C006779726F5F793A2025662C204D50553668
:104A5C003035302E6779726F5F7A3A2025660A00FE
:104A6C004D5055363035302E6163635F785F72611F
:104A7C00773A2025642C204D5055363035302E6138
:104A8C0063635F795F7261773A2025642C204D5007
:104A9C0055363035302E6163635F7A5F7261773AD9
:104AAC002025640A0A0A0000436865636B696E6717
:104ABC00204D5055363035302E2E2E004D5055365B
:104ACC003035302077686F5F616D5F69203D203035
:104ADC0078253032782E2E2E4F4B0A004C53425FE5
:104AEC0053656E73697469766974795F4759524F6F
:104AFC003A2025662C204C53425F53656E736974C3
:104B0C0069766974795F4143433A2025660A00004F
:104B1C004D5055363035302073657474696E67208E
:104B2C0069732066696E6973686564004552524FFB
:104B3C00522100004D5055363035302077686F5F6C
:104B4C00616D5F69203A20307825303278207368A7
:104B5C006F756C6420626520307836380A0000006E
:104B6C0077686F20616D2069206572726F722E20DC
:104B7C0043616E206E6F74207265636F676E697A25
:104B8C0065206D7075363035300000000203040569
:104B9C00060708090A0B0C0D0E0F10100102030476
:104BAC0005060708090A0B0C0D0E0F10000000007B
:104BBC0000000000010203040607080900000000C1
:104BCC0001020304232D302B20000000686C4C00E4
:104BDC006566674546470000303132333435363729
:104BEC0038394142434445460000000030313233ED
:104BFC00343536373839616263646566000000000D
:044C0C003501000866
:044C1000090100088E
:104C14000400002000000000D0480008B04800084C
:104C240090480008000000000000000000000000A0
:104C34000000000000000000000000000000000070
:104C44000000000000000000000000000000000060
:104C54000000000000000000000000000000000050
:104C64000000000000000000000000000000000040
:104C740000000000010000000400000000127A009F
:040000050800482186
:00000001FF
